{
  "contractName": "Promotions",
  "abi": [
    {
      "constant": true,
      "inputs": [],
      "name": "MAXIMUM_SUPPLY",
      "outputs": [
        {
          "name": "",
          "type": "uint256"
        }
      ],
      "payable": false,
      "stateMutability": "view",
      "type": "function"
    },
    {
      "constant": true,
      "inputs": [],
      "name": "lyAccount",
      "outputs": [
        {
          "name": "",
          "type": "address"
        }
      ],
      "payable": false,
      "stateMutability": "view",
      "type": "function"
    },
    {
      "constant": true,
      "inputs": [
        {
          "name": "",
          "type": "uint32"
        }
      ],
      "name": "productMap",
      "outputs": [
        {
          "name": "companyAddress",
          "type": "address"
        },
        {
          "name": "productId",
          "type": "uint32"
        },
        {
          "name": "promotionCount",
          "type": "uint32"
        },
        {
          "name": "status",
          "type": "uint8"
        }
      ],
      "payable": false,
      "stateMutability": "view",
      "type": "function"
    },
    {
      "constant": true,
      "inputs": [],
      "name": "tokensMinted",
      "outputs": [
        {
          "name": "",
          "type": "uint256"
        }
      ],
      "payable": false,
      "stateMutability": "view",
      "type": "function"
    },
    {
      "constant": true,
      "inputs": [],
      "name": "minimumSupply",
      "outputs": [
        {
          "name": "",
          "type": "uint256"
        }
      ],
      "payable": false,
      "stateMutability": "view",
      "type": "function"
    },
    {
      "constant": true,
      "inputs": [],
      "name": "owner",
      "outputs": [
        {
          "name": "",
          "type": "address"
        }
      ],
      "payable": false,
      "stateMutability": "view",
      "type": "function"
    },
    {
      "constant": true,
      "inputs": [
        {
          "name": "",
          "type": "address"
        }
      ],
      "name": "companyMap",
      "outputs": [
        {
          "name": "companyName",
          "type": "string"
        },
        {
          "name": "balance",
          "type": "uint32"
        },
        {
          "name": "status",
          "type": "uint8"
        }
      ],
      "payable": false,
      "stateMutability": "view",
      "type": "function"
    },
    {
      "constant": true,
      "inputs": [
        {
          "name": "",
          "type": "bytes32"
        }
      ],
      "name": "barcodeMap",
      "outputs": [
        {
          "name": "barcodeId",
          "type": "bytes32"
        },
        {
          "name": "rewardAmountInWei",
          "type": "uint32"
        },
        {
          "name": "status",
          "type": "uint8"
        },
        {
          "name": "winner",
          "type": "address"
        }
      ],
      "payable": false,
      "stateMutability": "view",
      "type": "function"
    },
    {
      "constant": false,
      "inputs": [
        {
          "name": "newOwner",
          "type": "address"
        }
      ],
      "name": "transferOwnership",
      "outputs": [],
      "payable": false,
      "stateMutability": "nonpayable",
      "type": "function"
    },
    {
      "inputs": [],
      "payable": false,
      "stateMutability": "nonpayable",
      "type": "constructor"
    },
    {
      "anonymous": false,
      "inputs": [
        {
          "indexed": false,
          "name": "_companyAddress",
          "type": "address"
        },
        {
          "indexed": false,
          "name": "_productId",
          "type": "uint32"
        }
      ],
      "name": "AddProductEvent",
      "type": "event"
    },
    {
      "anonymous": false,
      "inputs": [
        {
          "indexed": false,
          "name": "_checkerAddress",
          "type": "address"
        },
        {
          "indexed": false,
          "name": "_productId",
          "type": "uint32"
        },
        {
          "indexed": false,
          "name": "_barcodeNumber",
          "type": "uint32"
        },
        {
          "indexed": false,
          "name": "_coinAmount",
          "type": "uint32"
        }
      ],
      "name": "UserWonEvent",
      "type": "event"
    },
    {
      "anonymous": false,
      "inputs": [
        {
          "indexed": true,
          "name": "previousOwner",
          "type": "address"
        },
        {
          "indexed": true,
          "name": "newOwner",
          "type": "address"
        }
      ],
      "name": "OwnershipTransferred",
      "type": "event"
    },
    {
      "constant": false,
      "inputs": [
        {
          "name": "_productId",
          "type": "uint32"
        }
      ],
      "name": "finishCampaign",
      "outputs": [],
      "payable": false,
      "stateMutability": "nonpayable",
      "type": "function"
    },
    {
      "constant": false,
      "inputs": [],
      "name": "registerCompany",
      "outputs": [],
      "payable": false,
      "stateMutability": "nonpayable",
      "type": "function"
    },
    {
      "constant": false,
      "inputs": [],
      "name": "loadBalanceToCompany",
      "outputs": [
        {
          "name": "",
          "type": "uint256"
        }
      ],
      "payable": true,
      "stateMutability": "payable",
      "type": "function"
    },
    {
      "constant": false,
      "inputs": [
        {
          "name": "_productId",
          "type": "uint32"
        },
        {
          "name": "_promotionCount",
          "type": "uint32"
        }
      ],
      "name": "addProduct",
      "outputs": [
        {
          "name": "",
          "type": "uint32"
        }
      ],
      "payable": false,
      "stateMutability": "nonpayable",
      "type": "function"
    },
    {
      "constant": false,
      "inputs": [
        {
          "name": "_productId",
          "type": "uint32"
        },
        {
          "name": "_barcodeNumber",
          "type": "uint32"
        },
        {
          "name": "_rewardAmount",
          "type": "uint32"
        }
      ],
      "name": "addBarcode",
      "outputs": [
        {
          "name": "",
          "type": "bool"
        }
      ],
      "payable": true,
      "stateMutability": "payable",
      "type": "function"
    },
    {
      "constant": false,
      "inputs": [
        {
          "name": "_productId",
          "type": "uint32"
        },
        {
          "name": "_barcodeNumber",
          "type": "uint32"
        }
      ],
      "name": "checkBarcode",
      "outputs": [
        {
          "name": "",
          "type": "uint32"
        }
      ],
      "payable": true,
      "stateMutability": "payable",
      "type": "function"
    }
  ],
  "bytecode": "0x606060405260006001556001600255655af3107a4000600355734558d71ca1eda15601767dba2114ed1c6d150eb6600c60006101000a81548173ffffffffffffffffffffffffffffffffffffffff021916908373ffffffffffffffffffffffffffffffffffffffff16021790555034156200007957600080fd5b336000806101000a81548173ffffffffffffffffffffffffffffffffffffffff021916908373ffffffffffffffffffffffffffffffffffffffff16021790555033600b60006101000a81548173ffffffffffffffffffffffffffffffffffffffff021916908373ffffffffffffffffffffffffffffffffffffffff1602179055506200010462000161565b604051809103906000f08015156200011b57600080fd5b600460006101000a81548173ffffffffffffffffffffffffffffffffffffffff021916908373ffffffffffffffffffffffffffffffffffffffff16021790555062000172565b6040516117ee806200274183390190565b6125bf80620001826000396000f3006060604052600436106100db576000357c0100000000000000000000000000000000000000000000000000000000900463ffffffff16806315c9f431146100e05780633d0c4924146100fe57806342730138146101275780635d6594301461017c578063695a7cc9146102205780636b819975146102495780636de9f32b146102a15780637cad1107146102ca5780637ede036d146102df5780638da5cb5b14610308578063905566cc1461035d578063b166fe95146103aa578063ba0a8974146104a1578063e96bc51c1461053f578063f2fde38b14610593575b600080fd5b6100e86105cc565b6040518082815260200191505060405180910390f35b341561010957600080fd5b610111610ac0565b6040518082815260200191505060405180910390f35b341561013257600080fd5b61013a610acf565b604051808273ffffffffffffffffffffffffffffffffffffffff1673ffffffffffffffffffffffffffffffffffffffff16815260200191505060405180910390f35b341561018757600080fd5b6101a3600480803563ffffffff16906020019091905050610af5565b604051808573ffffffffffffffffffffffffffffffffffffffff1673ffffffffffffffffffffffffffffffffffffffff1681526020018463ffffffff1663ffffffff1681526020018363ffffffff1663ffffffff16815260200182600381111561020957fe5b60ff16815260200194505050505060405180910390f35b341561022b57600080fd5b610247600480803563ffffffff16906020019091905050610b72565b005b341561025457600080fd5b61027f600480803563ffffffff1690602001909190803563ffffffff16906020019091905050610db4565b604051808263ffffffff1663ffffffff16815260200191505060405180910390f35b34156102ac57600080fd5b6102b4611145565b6040518082815260200191505060405180910390f35b34156102d557600080fd5b6102dd61114b565b005b34156102ea57600080fd5b6102f261132a565b6040518082815260200191505060405180910390f35b341561031357600080fd5b61031b611330565b604051808273ffffffffffffffffffffffffffffffffffffffff1673ffffffffffffffffffffffffffffffffffffffff16815260200191505060405180910390f35b610388600480803563ffffffff1690602001909190803563ffffffff16906020019091905050611356565b604051808263ffffffff1663ffffffff16815260200191505060405180910390f35b34156103b557600080fd5b6103e1600480803573ffffffffffffffffffffffffffffffffffffffff16906020019091905050611973565b60405180806020018463ffffffff1663ffffffff16815260200183600281111561040757fe5b60ff1681526020018281038252858181546001816001161561010002031660029004815260200191508054600181600116156101000203166002900480156104905780601f1061046557610100808354040283529160200191610490565b820191906000526020600020905b81548152906001019060200180831161047357829003601f168201915b505094505050505060405180910390f35b34156104ac57600080fd5b6104c66004808035600019169060200190919050506119b9565b6040518085600019166000191681526020018463ffffffff1663ffffffff1681526020018360038111156104f657fe5b60ff1681526020018273ffffffffffffffffffffffffffffffffffffffff1673ffffffffffffffffffffffffffffffffffffffff16815260200194505050505060405180910390f35b610579600480803563ffffffff1690602001909190803563ffffffff1690602001909190803563ffffffff16906020019091905050611a26565b604051808215151515815260200191505060405180910390f35b341561059e57600080fd5b6105ca600480803573ffffffffffffffffffffffffffffffffffffffff16906020019091905050611fcb565b005b6000806000600a60003373ffffffffffffffffffffffffffffffffffffffff1673ffffffffffffffffffffffffffffffffffffffff16815260200190815260200160002060010160009054906101000a900463ffffffff1663ffffffff16141561063557600080fd5b670de0b6b3a764000034101561064a57600080fd5b6a021165458500521280000061066b3460015461212090919063ffffffff16565b1115151561067857600080fd5b600a60003373ffffffffffffffffffffffffffffffffffffffff1673ffffffffffffffffffffffffffffffffffffffff168152602001908152602001600020905060018160010160046101000a81548160ff021916908360028111156106da57fe5b021790555080600a60003373ffffffffffffffffffffffffffffffffffffffff1673ffffffffffffffffffffffffffffffffffffffff1681526020019081526020016000206000820181600001908054600181600116156101000203166002900461074692919061213e565b506001820160009054906101000a900463ffffffff168160010160006101000a81548163ffffffff021916908363ffffffff1602179055506001820160049054906101000a900460ff168160010160046101000a81548160ff021916908360028111156107af57fe5b0217905550905050600780548060010182816107cb91906121c5565b916000526020600020906002020160008390919091506000820181600001908054600181600116156101000203166002900461080892919061213e565b506001820160009054906101000a900463ffffffff168160010160006101000a81548163ffffffff021916908363ffffffff1602179055506001820160049054906101000a900460ff168160010160046101000a81548160ff0219169083600281111561087157fe5b0217905550505050600460009054906101000a900473ffffffffffffffffffffffffffffffffffffffff1673ffffffffffffffffffffffffffffffffffffffff166340c10f1933346000604051602001526040518363ffffffff167c0100000000000000000000000000000000000000000000000000000000028152600401808373ffffffffffffffffffffffffffffffffffffffff1673ffffffffffffffffffffffffffffffffffffffff16815260200182815260200192505050602060405180830381600087803b151561094657600080fd5b6102c65a03f1151561095757600080fd5b50505060405180519050506109773460015461212090919063ffffffff16565b50600c60009054906101000a900473ffffffffffffffffffffffffffffffffffffffff1673ffffffffffffffffffffffffffffffffffffffff166108fc349081150290604051600060405180830381858888f1935050505015156109da57600080fd5b600460009054906101000a900473ffffffffffffffffffffffffffffffffffffffff1673ffffffffffffffffffffffffffffffffffffffff166370a08231336000604051602001526040518263ffffffff167c0100000000000000000000000000000000000000000000000000000000028152600401808273ffffffffffffffffffffffffffffffffffffffff1673ffffffffffffffffffffffffffffffffffffffff168152602001915050602060405180830381600087803b1515610a9f57600080fd5b6102c65a03f11515610ab057600080fd5b5050506040518051905091505090565b6a021165458500521280000081565b600c60009054906101000a900473ffffffffffffffffffffffffffffffffffffffff1681565b60086020528060005260406000206000915090508060000160009054906101000a900473ffffffffffffffffffffffffffffffffffffffff16908060000160149054906101000a900463ffffffff16908060000160189054906101000a900463ffffffff169080600001601c9054906101000a900460ff16905084565b60003373ffffffffffffffffffffffffffffffffffffffff16600860008463ffffffff1663ffffffff16815260200190815260200160002060000160009054906101000a900473ffffffffffffffffffffffffffffffffffffffff1673ffffffffffffffffffffffffffffffffffffffff16141515610bf057600080fd5b8163ffffffff16600860008463ffffffff1663ffffffff16815260200190815260200160002060000160149054906101000a900463ffffffff1663ffffffff161415610c3b57600080fd5b600860008363ffffffff1663ffffffff1681526020019081526020016000209050600181600001601c6101000a81548160ff02191690836003811115610c7d57fe5b021790555080600860008463ffffffff1663ffffffff1681526020019081526020016000206000820160009054906101000a900473ffffffffffffffffffffffffffffffffffffffff168160000160006101000a81548173ffffffffffffffffffffffffffffffffffffffff021916908373ffffffffffffffffffffffffffffffffffffffff1602179055506000820160149054906101000a900463ffffffff168160000160146101000a81548163ffffffff021916908363ffffffff1602179055506000820160189054906101000a900463ffffffff168160000160186101000a81548163ffffffff021916908363ffffffff16021790555060008201601c9054906101000a900460ff1681600001601c6101000a81548160ff02191690836003811115610da857fe5b02179055509050505050565b6000610dbe6121f7565b8363ffffffff16600860008663ffffffff1663ffffffff16815260200190815260200160002060000160149054906101000a900463ffffffff1663ffffffff161415610e0957600080fd5b6000600a60003373ffffffffffffffffffffffffffffffffffffffff1673ffffffffffffffffffffffffffffffffffffffff16815260200190815260200160002060010160009054906101000a900463ffffffff1663ffffffff161415610e6f57600080fd5b83816020019063ffffffff16908163ffffffff168152505082816040019063ffffffff16908163ffffffff1681525050600081606001906003811115610eb157fe5b90816003811115610ebe57fe5b8152505033816000019073ffffffffffffffffffffffffffffffffffffffff16908173ffffffffffffffffffffffffffffffffffffffff168152505080600860008663ffffffff1663ffffffff16815260200190815260200160002060008201518160000160006101000a81548173ffffffffffffffffffffffffffffffffffffffff021916908373ffffffffffffffffffffffffffffffffffffffff16021790555060208201518160000160146101000a81548163ffffffff021916908363ffffffff16021790555060408201518160000160186101000a81548163ffffffff021916908363ffffffff160217905550606082015181600001601c6101000a81548160ff02191690836003811115610fd357fe5b021790555090505060068054806001018281610fef919061224d565b9160005260206000209001600083909190915060008201518160000160006101000a81548173ffffffffffffffffffffffffffffffffffffffff021916908373ffffffffffffffffffffffffffffffffffffffff16021790555060208201518160000160146101000a81548163ffffffff021916908363ffffffff16021790555060408201518160000160186101000a81548163ffffffff021916908363ffffffff160217905550606082015181600001601c6101000a81548160ff021916908360038111156110bb57fe5b02179055505050507f2f8efce7df7af50741f957d8460fca5d44a0e4d9a0009a5e94eae290cf4b8fdf3385604051808373ffffffffffffffffffffffffffffffffffffffff1673ffffffffffffffffffffffffffffffffffffffff1681526020018263ffffffff1663ffffffff1681526020019250505060405180910390a1600191505092915050565b60015481565b611153612279565b6000600a60003373ffffffffffffffffffffffffffffffffffffffff1673ffffffffffffffffffffffffffffffffffffffff16815260200190815260200160002060010160009054906101000a900463ffffffff1663ffffffff161415156111ba57600080fd5b6000816040019060028111156111cc57fe5b908160028111156111d957fe5b8152505080600a60003373ffffffffffffffffffffffffffffffffffffffff1673ffffffffffffffffffffffffffffffffffffffff16815260200190815260200160002060008201518160000190805190602001906112399291906122b2565b5060208201518160010160006101000a81548163ffffffff021916908363ffffffff16021790555060408201518160010160046101000a81548160ff0219169083600281111561128557fe5b0217905550905050600780548060010182816112a191906121c5565b9160005260206000209060020201600083909190915060008201518160000190805190602001906112d39291906122b2565b5060208201518160010160006101000a81548163ffffffff021916908363ffffffff16021790555060408201518160010160046101000a81548160ff0219169083600281111561131f57fe5b021790555050505050565b60025481565b600b60009054906101000a900473ffffffffffffffffffffffffffffffffffffffff1681565b600080600080600860008763ffffffff1663ffffffff16815260200190815260200160002060000160149054906101000a900463ffffffff1663ffffffff1614156113a057600080fd5b60006009600086604051808263ffffffff1663ffffffff167c010000000000000000000000000000000000000000000000000000000002815260040191505060405180910390206000191660001916815260200190815260200160002060010160009054906101000a900463ffffffff1663ffffffff16141561142257600080fd5b6001600381111561142f57fe5b600860008763ffffffff1663ffffffff168152602001908152602001600020600001601c9054906101000a900460ff16600381111561146a57fe5b141561147557600080fd5b6000600860008763ffffffff1663ffffffff16815260200190815260200160002060000160189054906101000a900463ffffffff1663ffffffff1614156114bb57600080fd5b6009600085604051808263ffffffff1663ffffffff167c010000000000000000000000000000000000000000000000000000000002815260040191505060405180910390206000191660001916815260200190815260200160002091506002600381111561152557fe5b8260010160049054906101000a900460ff16600381111561154257fe5b14156119665760038260010160046101000a81548160ff0219169083600381111561156957fe5b0217905550338260010160056101000a81548173ffffffffffffffffffffffffffffffffffffffff021916908373ffffffffffffffffffffffffffffffffffffffff160217905550816009600086604051808263ffffffff1663ffffffff167c0100000000000000000000000000000000000000000000000000000000028152600401915050604051809103902060001916600019168152602001908152602001600020600082015481600001906000191690556001820160009054906101000a900463ffffffff168160010160006101000a81548163ffffffff021916908363ffffffff1602179055506001820160049054906101000a900460ff168160010160046101000a81548160ff0219169083600381111561168557fe5b02179055506001820160059054906101000a900473ffffffffffffffffffffffffffffffffffffffff168160010160056101000a81548173ffffffffffffffffffffffffffffffffffffffff021916908373ffffffffffffffffffffffffffffffffffffffff160217905550905050600860008663ffffffff1663ffffffff168152602001908152602001600020905060018160000160189054906101000a900463ffffffff16038160000160186101000a81548163ffffffff021916908363ffffffff160217905550600460009054906101000a900473ffffffffffffffffffffffffffffffffffffffff1673ffffffffffffffffffffffffffffffffffffffff166323b872dd8260000160009054906101000a900473ffffffffffffffffffffffffffffffffffffffff16338560010160009054906101000a900463ffffffff166000604051602001526040518463ffffffff167c0100000000000000000000000000000000000000000000000000000000028152600401808473ffffffffffffffffffffffffffffffffffffffff1673ffffffffffffffffffffffffffffffffffffffff1681526020018373ffffffffffffffffffffffffffffffffffffffff1673ffffffffffffffffffffffffffffffffffffffff1681526020018263ffffffff1681526020019350505050602060405180830381600087803b151561188e57600080fd5b6102c65a03f1151561189f57600080fd5b50505060405180519050507fae7e0eabbd5ceefeb44e9935152811221aab51767c187e2d91f490efe11bb73f3386868560010160009054906101000a900463ffffffff16604051808573ffffffffffffffffffffffffffffffffffffffff1673ffffffffffffffffffffffffffffffffffffffff1681526020018463ffffffff1663ffffffff1681526020018363ffffffff1663ffffffff1681526020018263ffffffff1663ffffffff16815260200194505050505060405180910390a16001925061196b565b600092505b505092915050565b600a60205280600052604060002060009150905080600001908060010160009054906101000a900463ffffffff16908060010160049054906101000a900460ff16905083565b60096020528060005260406000206000915090508060000154908060010160009054906101000a900463ffffffff16908060010160049054906101000a900460ff16908060010160059054906101000a900473ffffffffffffffffffffffffffffffffffffffff16905084565b6000611a30612332565b6000600860008763ffffffff1663ffffffff16815260200190815260200160002060000160149054906101000a900463ffffffff1663ffffffff161480611ae557503373ffffffffffffffffffffffffffffffffffffffff16600860008763ffffffff1663ffffffff16815260200190815260200160002060000160009054906101000a900473ffffffffffffffffffffffffffffffffffffffff1673ffffffffffffffffffffffffffffffffffffffff1614155b15611aef57600080fd5b60006001026009600086604051808263ffffffff1663ffffffff167c01000000000000000000000000000000000000000000000000000000000281526004019150506040518091039020600019166000191681526020019081526020016000206000015460001916141515611b6357600080fd5b600354600460009054906101000a900473ffffffffffffffffffffffffffffffffffffffff1673ffffffffffffffffffffffffffffffffffffffff166370a08231336000604051602001526040518263ffffffff167c0100000000000000000000000000000000000000000000000000000000028152600401808273ffffffffffffffffffffffffffffffffffffffff1673ffffffffffffffffffffffffffffffffffffffff168152602001915050602060405180830381600087803b1515611c2b57600080fd5b6102c65a03f11515611c3c57600080fd5b505050604051805190501015611c5157600080fd5b83604051808263ffffffff1663ffffffff167c010000000000000000000000000000000000000000000000000000000002815260040191505060405180910390208160000190600019169081600019168152505082816020019063ffffffff16908163ffffffff1681525050600281604001906003811115611ccf57fe5b90816003811115611cdc57fe5b8152505080600960008360000151600019166000191681526020019081526020016000206000820151816000019060001916905560208201518160010160006101000a81548163ffffffff021916908363ffffffff16021790555060408201518160010160046101000a81548160ff02191690836003811115611d5b57fe5b021790555060608201518160010160056101000a81548173ffffffffffffffffffffffffffffffffffffffff021916908373ffffffffffffffffffffffffffffffffffffffff16021790555090505060058054806001018281611dbe9190612385565b916000526020600020906002020160008390919091506000820151816000019060001916905560208201518160010160006101000a81548163ffffffff021916908363ffffffff16021790555060408201518160010160046101000a81548160ff02191690836003811115611e2f57fe5b021790555060608201518160010160056101000a81548173ffffffffffffffffffffffffffffffffffffffff021916908373ffffffffffffffffffffffffffffffffffffffff160217905550505050600460009054906101000a900473ffffffffffffffffffffffffffffffffffffffff1673ffffffffffffffffffffffffffffffffffffffff166323b872dd33600b60009054906101000a900473ffffffffffffffffffffffffffffffffffffffff166003546000604051602001526040518463ffffffff167c0100000000000000000000000000000000000000000000000000000000028152600401808473ffffffffffffffffffffffffffffffffffffffff1673ffffffffffffffffffffffffffffffffffffffff1681526020018373ffffffffffffffffffffffffffffffffffffffff1673ffffffffffffffffffffffffffffffffffffffff1681526020018281526020019350505050602060405180830381600087803b1515611fa357600080fd5b6102c65a03f11515611fb457600080fd5b505050604051805190505060019150509392505050565b6000809054906101000a900473ffffffffffffffffffffffffffffffffffffffff1673ffffffffffffffffffffffffffffffffffffffff163373ffffffffffffffffffffffffffffffffffffffff1614151561202657600080fd5b600073ffffffffffffffffffffffffffffffffffffffff168173ffffffffffffffffffffffffffffffffffffffff161415151561206257600080fd5b8073ffffffffffffffffffffffffffffffffffffffff166000809054906101000a900473ffffffffffffffffffffffffffffffffffffffff1673ffffffffffffffffffffffffffffffffffffffff167f8be0079c531659141344cd1fd0a4f28419497f9722a3daafe3b4186f6b6457e060405160405180910390a3806000806101000a81548173ffffffffffffffffffffffffffffffffffffffff021916908373ffffffffffffffffffffffffffffffffffffffff16021790555050565b600080828401905083811015151561213457fe5b8091505092915050565b828054600181600116156101000203166002900490600052602060002090601f016020900481019282601f1061217757805485556121b4565b828001600101855582156121b457600052602060002091601f016020900482015b828111156121b3578254825591600101919060010190612198565b5b5090506121c191906123b7565b5090565b8154818355818115116121f2576002028160020283600052602060002091820191016121f191906123dc565b5b505050565b608060405190810160405280600073ffffffffffffffffffffffffffffffffffffffff168152602001600063ffffffff168152602001600063ffffffff1681526020016000600381111561224757fe5b81525090565b815481835581811511612274578183600052602060002091820191016122739190612436565b5b505050565b60606040519081016040528061228d6124be565b8152602001600063ffffffff168152602001600060028111156122ac57fe5b81525090565b828054600181600116156101000203166002900490600052602060002090601f016020900481019282601f106122f357805160ff1916838001178555612321565b82800160010185558215612321579182015b82811115612320578251825591602001919060010190612305565b5b50905061232e91906123b7565b5090565b60806040519081016040528060008019168152602001600063ffffffff1681526020016000600381111561236257fe5b8152602001600073ffffffffffffffffffffffffffffffffffffffff1681525090565b8154818355818115116123b2576002028160020283600052602060002091820191016123b191906124d2565b5b505050565b6123d991905b808211156123d55760008160009055506001016123bd565b5090565b90565b61243391905b8082111561242f57600080820160006123fb919061254b565b6001820160006101000a81549063ffffffff02191690556001820160046101000a81549060ff0219169055506002016123e2565b5090565b90565b6124bb91905b808211156124b757600080820160006101000a81549073ffffffffffffffffffffffffffffffffffffffff02191690556000820160146101000a81549063ffffffff02191690556000820160186101000a81549063ffffffff021916905560008201601c6101000a81549060ff02191690555060010161243c565b5090565b90565b602060405190810160405280600081525090565b61254891905b80821115612544576000808201600090556001820160006101000a81549063ffffffff02191690556001820160046101000a81549060ff02191690556001820160056101000a81549073ffffffffffffffffffffffffffffffffffffffff0219169055506002016124d8565b5090565b90565b50805460018160011615610100020316600290046000825580601f106125715750612590565b601f01602090049060005260206000209081019061258f91906123b7565b5b505600a165627a7a723058207d91f8116f826241a04e3af84821face80cd29f54dcabed4b9366edc508c7e3d002960606040526000600360146101000a81548160ff02191690831515021790555033600360006101000a81548173ffffffffffffffffffffffffffffffffffffffff021916908373ffffffffffffffffffffffffffffffffffffffff16021790555061177f8061006f6000396000f3006060604052600436106100e6576000357c0100000000000000000000000000000000000000000000000000000000900463ffffffff16806305d2035b146100eb57806306fdde0314610118578063095ea7b3146101a657806318160ddd1461020057806323b872dd14610229578063313ce567146102a257806340c10f19146102cb578063661884631461032557806370a082311461037f5780637d64bcb4146103cc5780638da5cb5b146103f957806395d89b411461044e578063a9059cbb146104dc578063d73dd62314610536578063dd62ed3e14610590578063f2fde38b146105fc575b600080fd5b34156100f657600080fd5b6100fe610635565b604051808215151515815260200191505060405180910390f35b341561012357600080fd5b61012b610648565b6040518080602001828103825283818151815260200191508051906020019080838360005b8381101561016b578082015181840152602081019050610150565b50505050905090810190601f1680156101985780820380516001836020036101000a031916815260200191505b509250505060405180910390f35b34156101b157600080fd5b6101e6600480803573ffffffffffffffffffffffffffffffffffffffff16906020019091908035906020019091905050610681565b604051808215151515815260200191505060405180910390f35b341561020b57600080fd5b610213610773565b6040518082815260200191505060405180910390f35b341561023457600080fd5b610288600480803573ffffffffffffffffffffffffffffffffffffffff1690602001909190803573ffffffffffffffffffffffffffffffffffffffff1690602001909190803590602001909190505061077d565b604051808215151515815260200191505060405180910390f35b34156102ad57600080fd5b6102b5610b37565b6040518082815260200191505060405180910390f35b34156102d657600080fd5b61030b600480803573ffffffffffffffffffffffffffffffffffffffff16906020019091908035906020019091905050610b3c565b604051808215151515815260200191505060405180910390f35b341561033057600080fd5b610365600480803573ffffffffffffffffffffffffffffffffffffffff16906020019091908035906020019091905050610d22565b604051808215151515815260200191505060405180910390f35b341561038a57600080fd5b6103b6600480803573ffffffffffffffffffffffffffffffffffffffff16906020019091905050610fb3565b6040518082815260200191505060405180910390f35b34156103d757600080fd5b6103df610ffb565b604051808215151515815260200191505060405180910390f35b341561040457600080fd5b61040c6110c3565b604051808273ffffffffffffffffffffffffffffffffffffffff1673ffffffffffffffffffffffffffffffffffffffff16815260200191505060405180910390f35b341561045957600080fd5b6104616110e9565b6040518080602001828103825283818151815260200191508051906020019080838360005b838110156104a1578082015181840152602081019050610486565b50505050905090810190601f1680156104ce5780820380516001836020036101000a031916815260200191505b509250505060405180910390f35b34156104e757600080fd5b61051c600480803573ffffffffffffffffffffffffffffffffffffffff16906020019091908035906020019091905050611122565b604051808215151515815260200191505060405180910390f35b341561054157600080fd5b610576600480803573ffffffffffffffffffffffffffffffffffffffff16906020019091908035906020019091905050611341565b604051808215151515815260200191505060405180910390f35b341561059b57600080fd5b6105e6600480803573ffffffffffffffffffffffffffffffffffffffff1690602001909190803573ffffffffffffffffffffffffffffffffffffffff1690602001909190505061153d565b6040518082815260200191505060405180910390f35b341561060757600080fd5b610633600480803573ffffffffffffffffffffffffffffffffffffffff169060200190919050506115c4565b005b600360149054906101000a900460ff1681565b6040805190810160405280600e81526020017f50726f6d6f74696f6e546f6b656e00000000000000000000000000000000000081525081565b600081600260003373ffffffffffffffffffffffffffffffffffffffff1673ffffffffffffffffffffffffffffffffffffffff16815260200190815260200160002060008573ffffffffffffffffffffffffffffffffffffffff1673ffffffffffffffffffffffffffffffffffffffff168152602001908152602001600020819055508273ffffffffffffffffffffffffffffffffffffffff163373ffffffffffffffffffffffffffffffffffffffff167f8c5be1e5ebec7d5bd14f71427d1e84f3dd0314c0f7b2291e5b200ac8c7c3b925846040518082815260200191505060405180910390a36001905092915050565b6000600154905090565b60008073ffffffffffffffffffffffffffffffffffffffff168373ffffffffffffffffffffffffffffffffffffffff16141515156107ba57600080fd5b6000808573ffffffffffffffffffffffffffffffffffffffff1673ffffffffffffffffffffffffffffffffffffffff16815260200190815260200160002054821115151561080757600080fd5b600260008573ffffffffffffffffffffffffffffffffffffffff1673ffffffffffffffffffffffffffffffffffffffff16815260200190815260200160002060003373ffffffffffffffffffffffffffffffffffffffff1673ffffffffffffffffffffffffffffffffffffffff16815260200190815260200160002054821115151561089257600080fd5b6108e3826000808773ffffffffffffffffffffffffffffffffffffffff1673ffffffffffffffffffffffffffffffffffffffff1681526020019081526020016000205461171c90919063ffffffff16565b6000808673ffffffffffffffffffffffffffffffffffffffff1673ffffffffffffffffffffffffffffffffffffffff16815260200190815260200160002081905550610976826000808673ffffffffffffffffffffffffffffffffffffffff1673ffffffffffffffffffffffffffffffffffffffff1681526020019081526020016000205461173590919063ffffffff16565b6000808573ffffffffffffffffffffffffffffffffffffffff1673ffffffffffffffffffffffffffffffffffffffff16815260200190815260200160002081905550610a4782600260008773ffffffffffffffffffffffffffffffffffffffff1673ffffffffffffffffffffffffffffffffffffffff16815260200190815260200160002060003373ffffffffffffffffffffffffffffffffffffffff1673ffffffffffffffffffffffffffffffffffffffff1681526020019081526020016000205461171c90919063ffffffff16565b600260008673ffffffffffffffffffffffffffffffffffffffff1673ffffffffffffffffffffffffffffffffffffffff16815260200190815260200160002060003373ffffffffffffffffffffffffffffffffffffffff1673ffffffffffffffffffffffffffffffffffffffff168152602001908152602001600020819055508273ffffffffffffffffffffffffffffffffffffffff168473ffffffffffffffffffffffffffffffffffffffff167fddf252ad1be2c89b69c2b068fc378daa952ba7f163c4a11628f55a4df523b3ef846040518082815260200191505060405180910390a3600190509392505050565b601281565b6000600360009054906101000a900473ffffffffffffffffffffffffffffffffffffffff1673ffffffffffffffffffffffffffffffffffffffff163373ffffffffffffffffffffffffffffffffffffffff16141515610b9a57600080fd5b600360149054906101000a900460ff16151515610bb657600080fd5b610bcb8260015461173590919063ffffffff16565b600181905550610c22826000808673ffffffffffffffffffffffffffffffffffffffff1673ffffffffffffffffffffffffffffffffffffffff1681526020019081526020016000205461173590919063ffffffff16565b6000808573ffffffffffffffffffffffffffffffffffffffff1673ffffffffffffffffffffffffffffffffffffffff168152602001908152602001600020819055508273ffffffffffffffffffffffffffffffffffffffff167f0f6798a560793a54c3bcfe86a93cde1e73087d944c0ea20544137d4121396885836040518082815260200191505060405180910390a28273ffffffffffffffffffffffffffffffffffffffff16600073ffffffffffffffffffffffffffffffffffffffff167fddf252ad1be2c89b69c2b068fc378daa952ba7f163c4a11628f55a4df523b3ef846040518082815260200191505060405180910390a36001905092915050565b600080600260003373ffffffffffffffffffffffffffffffffffffffff1673ffffffffffffffffffffffffffffffffffffffff16815260200190815260200160002060008573ffffffffffffffffffffffffffffffffffffffff1673ffffffffffffffffffffffffffffffffffffffff16815260200190815260200160002054905080831115610e33576000600260003373ffffffffffffffffffffffffffffffffffffffff1673ffffffffffffffffffffffffffffffffffffffff16815260200190815260200160002060008673ffffffffffffffffffffffffffffffffffffffff1673ffffffffffffffffffffffffffffffffffffffff16815260200190815260200160002081905550610ec7565b610e46838261171c90919063ffffffff16565b600260003373ffffffffffffffffffffffffffffffffffffffff1673ffffffffffffffffffffffffffffffffffffffff16815260200190815260200160002060008673ffffffffffffffffffffffffffffffffffffffff1673ffffffffffffffffffffffffffffffffffffffff168152602001908152602001600020819055505b8373ffffffffffffffffffffffffffffffffffffffff163373ffffffffffffffffffffffffffffffffffffffff167f8c5be1e5ebec7d5bd14f71427d1e84f3dd0314c0f7b2291e5b200ac8c7c3b925600260003373ffffffffffffffffffffffffffffffffffffffff1673ffffffffffffffffffffffffffffffffffffffff16815260200190815260200160002060008873ffffffffffffffffffffffffffffffffffffffff1673ffffffffffffffffffffffffffffffffffffffff168152602001908152602001600020546040518082815260200191505060405180910390a3600191505092915050565b60008060008373ffffffffffffffffffffffffffffffffffffffff1673ffffffffffffffffffffffffffffffffffffffff168152602001908152602001600020549050919050565b6000600360009054906101000a900473ffffffffffffffffffffffffffffffffffffffff1673ffffffffffffffffffffffffffffffffffffffff163373ffffffffffffffffffffffffffffffffffffffff1614151561105957600080fd5b600360149054906101000a900460ff1615151561107557600080fd5b6001600360146101000a81548160ff0219169083151502179055507fae5184fba832cb2b1f702aca6117b8d265eaf03ad33eb133f19dde0f5920fa0860405160405180910390a16001905090565b600360009054906101000a900473ffffffffffffffffffffffffffffffffffffffff1681565b6040805190810160405280600481526020017f50524f430000000000000000000000000000000000000000000000000000000081525081565b60008073ffffffffffffffffffffffffffffffffffffffff168373ffffffffffffffffffffffffffffffffffffffff161415151561115f57600080fd5b6000803373ffffffffffffffffffffffffffffffffffffffff1673ffffffffffffffffffffffffffffffffffffffff1681526020019081526020016000205482111515156111ac57600080fd5b6111fd826000803373ffffffffffffffffffffffffffffffffffffffff1673ffffffffffffffffffffffffffffffffffffffff1681526020019081526020016000205461171c90919063ffffffff16565b6000803373ffffffffffffffffffffffffffffffffffffffff1673ffffffffffffffffffffffffffffffffffffffff16815260200190815260200160002081905550611290826000808673ffffffffffffffffffffffffffffffffffffffff1673ffffffffffffffffffffffffffffffffffffffff1681526020019081526020016000205461173590919063ffffffff16565b6000808573ffffffffffffffffffffffffffffffffffffffff1673ffffffffffffffffffffffffffffffffffffffff168152602001908152602001600020819055508273ffffffffffffffffffffffffffffffffffffffff163373ffffffffffffffffffffffffffffffffffffffff167fddf252ad1be2c89b69c2b068fc378daa952ba7f163c4a11628f55a4df523b3ef846040518082815260200191505060405180910390a36001905092915050565b60006113d282600260003373ffffffffffffffffffffffffffffffffffffffff1673ffffffffffffffffffffffffffffffffffffffff16815260200190815260200160002060008673ffffffffffffffffffffffffffffffffffffffff1673ffffffffffffffffffffffffffffffffffffffff1681526020019081526020016000205461173590919063ffffffff16565b600260003373ffffffffffffffffffffffffffffffffffffffff1673ffffffffffffffffffffffffffffffffffffffff16815260200190815260200160002060008573ffffffffffffffffffffffffffffffffffffffff1673ffffffffffffffffffffffffffffffffffffffff168152602001908152602001600020819055508273ffffffffffffffffffffffffffffffffffffffff163373ffffffffffffffffffffffffffffffffffffffff167f8c5be1e5ebec7d5bd14f71427d1e84f3dd0314c0f7b2291e5b200ac8c7c3b925600260003373ffffffffffffffffffffffffffffffffffffffff1673ffffffffffffffffffffffffffffffffffffffff16815260200190815260200160002060008773ffffffffffffffffffffffffffffffffffffffff1673ffffffffffffffffffffffffffffffffffffffff168152602001908152602001600020546040518082815260200191505060405180910390a36001905092915050565b6000600260008473ffffffffffffffffffffffffffffffffffffffff1673ffffffffffffffffffffffffffffffffffffffff16815260200190815260200160002060008373ffffffffffffffffffffffffffffffffffffffff1673ffffffffffffffffffffffffffffffffffffffff16815260200190815260200160002054905092915050565b600360009054906101000a900473ffffffffffffffffffffffffffffffffffffffff1673ffffffffffffffffffffffffffffffffffffffff163373ffffffffffffffffffffffffffffffffffffffff1614151561162057600080fd5b600073ffffffffffffffffffffffffffffffffffffffff168173ffffffffffffffffffffffffffffffffffffffff161415151561165c57600080fd5b8073ffffffffffffffffffffffffffffffffffffffff16600360009054906101000a900473ffffffffffffffffffffffffffffffffffffffff1673ffffffffffffffffffffffffffffffffffffffff167f8be0079c531659141344cd1fd0a4f28419497f9722a3daafe3b4186f6b6457e060405160405180910390a380600360006101000a81548173ffffffffffffffffffffffffffffffffffffffff021916908373ffffffffffffffffffffffffffffffffffffffff16021790555050565b600082821115151561172a57fe5b818303905092915050565b600080828401905083811015151561174957fe5b80915050929150505600a165627a7a72305820a9a8b5b330de4309c0112d490b7a4542c5da5423236775135ed3104ba5f335000029",
  "source": "/**\r\n * @title Promotions\r\n * @dev The Promotions contract\r\n * @author Abdullah Aslan\r\n */\r\npragma solidity ^0.4.17;\r\n\r\nimport \"./token/PromotionToken.sol\";\r\nimport \"zeppelin-solidity/contracts/token/ERC20/MintableToken.sol\";\r\nimport \"zeppelin-solidity/contracts/ownership/Ownable.sol\";\r\n\r\n\r\ncontract Promotions is Ownable {    \r\n    \r\n    using SafeMath for uint;\r\n    \r\n    uint public tokensMinted = 0;\r\n    uint public minimumSupply = 1; //minimum token amount to sale at one transaction\r\n    uint insertBarcodeWei = 1*10**14;\r\n    uint256 public constant MAXIMUM_SUPPLY = 2500000 * 10**18;       \r\n\r\n    MintableToken token;\r\n    \r\n    event AddProductEvent(address _companyAddress, uint32 _productId);\r\n    event UserWonEvent(address _checkerAddress, uint32 _productId, uint32 _barcodeNumber, uint32 _coinAmount);\r\n  \r\n    enum Status { Registered, Payed, Stopped }\r\n    \r\n    enum AvaliableStatus { Active, Passive, Started, Found }\r\n    \r\n    struct barcode {\r\n        bytes32 barcodeId; \r\n        uint32 rewardAmountInWei;\r\n        AvaliableStatus status;\r\n        address winner;\r\n    }\r\n\r\n    struct product {\r\n        address companyAddress;\r\n        uint32 productId;           \r\n        uint32 promotionCount;\r\n        AvaliableStatus status;\r\n    }\r\n    \r\n    struct company {\r\n        string companyName;\r\n        uint32 balance;\r\n        Status status;\r\n    }\r\n\r\n    barcode[] barcodes; \r\n    product[] products;\r\n    company[] companies;\r\n    \r\n    mapping(uint32 => product) public productMap;\r\n    mapping(bytes32 => barcode) public barcodeMap;\r\n    mapping(address => company) public companyMap;\r\n    \r\n    address public owner;    // address of the token being used for this   \r\n\r\n    address public lyAccount = 0x4558d71CA1eda15601767dbA2114Ed1c6d150Eb6;\r\n    \r\n    /// @notice the init function that is run automatically when contract is created\r\n    function Promotions() {\r\n        owner = msg.sender;\r\n        token = new PromotionToken();\r\n    }\r\n\r\n    function finishCampaign(uint32 _productId) public\r\n    {        \r\n        if (productMap[_productId].companyAddress != msg.sender) revert();\r\n        if (productMap[_productId].productId == _productId) revert(); \r\n\r\n        product storage productUpdate  = productMap[_productId];\r\n        productUpdate.status = AvaliableStatus.Passive;\r\n        productMap[_productId] = productUpdate;\r\n    }   \r\n\r\n    function registerCompany() public \r\n    {\r\n        if (companyMap[msg.sender].balance != 0)  revert();\r\n         \r\n        company memory newCompany;      \r\n        newCompany.status = Status.Registered;    \r\n        \r\n        companyMap[msg.sender] = newCompany; \r\n        companies.push(newCompany);        \r\n    }    \r\n    \r\n    function loadBalanceToCompany() public payable returns (uint256) {    \r\n       \r\n        if (companyMap[msg.sender].balance == 0)  revert();\r\n        if (msg.value < 1 ether) revert(); // accept exactly 1 ether and nothing else\r\n        require(tokensMinted.add(msg.value) <= MAXIMUM_SUPPLY); \r\n        \r\n        company storage cmp = companyMap[msg.sender];    \r\n        cmp.status = Status.Payed;\r\n        \r\n        companyMap[msg.sender] = cmp; \r\n        companies.push(cmp);     \r\n\r\n        token.mint(msg.sender, msg.value);\r\n        tokensMinted.add(msg.value);\r\n        lyAccount.transfer(msg.value);  \r\n        \r\n        return  token.balanceOf(msg.sender);\r\n        \r\n    }\r\n    \r\n    //company adds product\r\n    function addProduct (uint32 _productId,  uint32 _promotionCount) \r\n    public returns (uint32) {                      \r\n        if (productMap[_productId].productId == _productId) revert();                \r\n        if (companyMap[msg.sender].balance == 0) revert();\r\n\r\n        product memory newProduct;\r\n        newProduct.productId = _productId;\r\n        newProduct.promotionCount = _promotionCount;\r\n        newProduct.status = AvaliableStatus.Active;\r\n        newProduct.companyAddress = msg.sender;       \r\n\r\n        productMap[_productId] = newProduct;\r\n        products.push(newProduct);\r\n        AddProductEvent(msg.sender, _productId);\r\n        return 1;\r\n    }\r\n\r\n    //company adds barcode\r\n    function addBarcode(uint32 _productId, uint32 _barcodeNumber, uint32 _rewardAmount) \r\n    public payable returns(bool) {       \r\n         //product not exist or product company != companyId\r\n        if (productMap[_productId].productId == 0 || productMap[_productId].companyAddress != msg.sender) revert(); \r\n        //barcode exist\r\n        if (barcodeMap[keccak256(_barcodeNumber)].barcodeId != 0) revert();   \r\n        \r\n        if (token.balanceOf(msg.sender) < insertBarcodeWei) revert();\r\n\r\n        barcode memory newBarcode;\r\n        newBarcode.barcodeId = keccak256(_barcodeNumber);\r\n        newBarcode.rewardAmountInWei = _rewardAmount;\r\n        newBarcode.status = AvaliableStatus.Started; // isUsed\r\n        barcodeMap[newBarcode.barcodeId] = newBarcode;\r\n\r\n        barcodes.push(newBarcode);        \r\n        //bakiyesinde azaltma yap\r\n        token.transferFrom(msg.sender, owner, insertBarcodeWei);\r\n\r\n        return true;\r\n    }\r\n\r\n    function checkBarcode(uint32 _productId, uint32 _barcodeNumber)  public payable returns(uint32) {   \r\n        //product exist  \r\n        if (productMap[_productId].productId == 0) revert();\r\n        //barcode exist\r\n        if (barcodeMap[keccak256(_barcodeNumber)].rewardAmountInWei == 0) revert();        \r\n        //campaing expired\r\n        if (productMap[_productId].status == AvaliableStatus.Passive) revert();\r\n\r\n        if (productMap[_productId].promotionCount == 0) revert();\r\n\r\n        barcode storage luckyBarcode = barcodeMap[keccak256(_barcodeNumber)];\r\n        if (luckyBarcode.status == AvaliableStatus.Started) {\r\n            luckyBarcode.status = AvaliableStatus.Found;\r\n            luckyBarcode.winner = msg.sender;\r\n            barcodeMap[keccak256(_barcodeNumber)] = luckyBarcode;\r\n            \r\n            product storage productUpdate  = productMap[_productId];\r\n            productUpdate.promotionCount = productUpdate.promotionCount-1;\r\n            \r\n            token.transferFrom(productUpdate.companyAddress, msg.sender, luckyBarcode.rewardAmountInWei);            \r\n            UserWonEvent(msg.sender, _productId, _barcodeNumber, luckyBarcode.rewardAmountInWei);\r\n            return 1;\r\n        }        \r\n        return 0;\r\n    }\r\n}",
  "sourcePath": "E:\\play\\Ethereum\\Project\\LuckyYou\\contracts\\Promotions.sol",
  "compiler": {
    "name": "solc",
    "version": "0.4.19+commit.c4cbbb05.Emscripten.clang"
  },
  "schemaVersion": "2.0.0",
  "updatedAt": "2018-03-08T20:56:22.224Z"
}