{
  "contractName": "Promotions",
  "abi": [
    {
      "constant": true,
      "inputs": [],
      "name": "MAXIMUM_SUPPLY",
      "outputs": [
        {
          "name": "",
          "type": "uint256"
        }
      ],
      "payable": false,
      "stateMutability": "view",
      "type": "function"
    },
    {
      "constant": true,
      "inputs": [
        {
          "name": "",
          "type": "uint32"
        }
      ],
      "name": "productMap",
      "outputs": [
        {
          "name": "companyAddress",
          "type": "address"
        },
        {
          "name": "productId",
          "type": "uint32"
        },
        {
          "name": "startDate",
          "type": "uint256"
        },
        {
          "name": "endDate",
          "type": "uint256"
        },
        {
          "name": "promotionCount",
          "type": "uint32"
        },
        {
          "name": "timestamp",
          "type": "uint256"
        },
        {
          "name": "status",
          "type": "uint8"
        }
      ],
      "payable": false,
      "stateMutability": "view",
      "type": "function"
    },
    {
      "constant": true,
      "inputs": [],
      "name": "tokensMinted",
      "outputs": [
        {
          "name": "",
          "type": "uint256"
        }
      ],
      "payable": false,
      "stateMutability": "view",
      "type": "function"
    },
    {
      "constant": true,
      "inputs": [
        {
          "name": "",
          "type": "address"
        }
      ],
      "name": "winnerMap",
      "outputs": [
        {
          "name": "winnerAddress",
          "type": "address"
        },
        {
          "name": "timestamp",
          "type": "uint256"
        },
        {
          "name": "barcodeId",
          "type": "bytes32"
        },
        {
          "name": "productId",
          "type": "uint32"
        },
        {
          "name": "companyAddress",
          "type": "address"
        },
        {
          "name": "reward",
          "type": "uint32"
        }
      ],
      "payable": false,
      "stateMutability": "view",
      "type": "function"
    },
    {
      "constant": true,
      "inputs": [],
      "name": "minimumSupply",
      "outputs": [
        {
          "name": "",
          "type": "uint256"
        }
      ],
      "payable": false,
      "stateMutability": "view",
      "type": "function"
    },
    {
      "constant": true,
      "inputs": [],
      "name": "owner",
      "outputs": [
        {
          "name": "",
          "type": "address"
        }
      ],
      "payable": false,
      "stateMutability": "view",
      "type": "function"
    },
    {
      "constant": true,
      "inputs": [
        {
          "name": "",
          "type": "address"
        }
      ],
      "name": "companyMap",
      "outputs": [
        {
          "name": "companyName",
          "type": "string"
        },
        {
          "name": "balance",
          "type": "uint32"
        },
        {
          "name": "timestamp",
          "type": "uint256"
        },
        {
          "name": "companyAddress",
          "type": "address"
        },
        {
          "name": "status",
          "type": "uint8"
        }
      ],
      "payable": false,
      "stateMutability": "view",
      "type": "function"
    },
    {
      "constant": true,
      "inputs": [
        {
          "name": "",
          "type": "bytes32"
        }
      ],
      "name": "barcodeMap",
      "outputs": [
        {
          "name": "barcodeId",
          "type": "bytes32"
        },
        {
          "name": "timestamp",
          "type": "uint256"
        },
        {
          "name": "rewardAmountInWei",
          "type": "uint32"
        },
        {
          "name": "status",
          "type": "uint8"
        }
      ],
      "payable": false,
      "stateMutability": "view",
      "type": "function"
    },
    {
      "constant": false,
      "inputs": [
        {
          "name": "newOwner",
          "type": "address"
        }
      ],
      "name": "transferOwnership",
      "outputs": [],
      "payable": false,
      "stateMutability": "nonpayable",
      "type": "function"
    },
    {
      "inputs": [],
      "payable": false,
      "stateMutability": "nonpayable",
      "type": "constructor"
    },
    {
      "anonymous": false,
      "inputs": [],
      "name": "InsertCompanyEvent",
      "type": "event"
    },
    {
      "anonymous": false,
      "inputs": [
        {
          "indexed": false,
          "name": "_companyAddress",
          "type": "address"
        },
        {
          "indexed": false,
          "name": "_productId",
          "type": "uint32"
        }
      ],
      "name": "InsertProductEvent",
      "type": "event"
    },
    {
      "anonymous": false,
      "inputs": [
        {
          "indexed": false,
          "name": "_companyAddress",
          "type": "address"
        },
        {
          "indexed": false,
          "name": "_productId",
          "type": "uint32"
        },
        {
          "indexed": false,
          "name": "_barcodeNumber",
          "type": "uint32"
        }
      ],
      "name": "InsertBarcodeEvent",
      "type": "event"
    },
    {
      "anonymous": false,
      "inputs": [
        {
          "indexed": false,
          "name": "_checkerAddress",
          "type": "address"
        },
        {
          "indexed": false,
          "name": "_productId",
          "type": "uint32"
        },
        {
          "indexed": false,
          "name": "_barcodeNumber",
          "type": "uint32"
        }
      ],
      "name": "CheckBarcodeEvent",
      "type": "event"
    },
    {
      "anonymous": false,
      "inputs": [
        {
          "indexed": false,
          "name": "_checkerAddress",
          "type": "address"
        },
        {
          "indexed": false,
          "name": "_productId",
          "type": "uint32"
        },
        {
          "indexed": false,
          "name": "_barcodeNumber",
          "type": "uint32"
        },
        {
          "indexed": false,
          "name": "_coinAmount",
          "type": "uint32"
        }
      ],
      "name": "UserWonEvent",
      "type": "event"
    },
    {
      "anonymous": false,
      "inputs": [
        {
          "indexed": true,
          "name": "previousOwner",
          "type": "address"
        },
        {
          "indexed": true,
          "name": "newOwner",
          "type": "address"
        }
      ],
      "name": "OwnershipTransferred",
      "type": "event"
    },
    {
      "constant": false,
      "inputs": [
        {
          "name": "_address",
          "type": "address"
        }
      ],
      "name": "getBalance",
      "outputs": [
        {
          "name": "",
          "type": "uint256"
        }
      ],
      "payable": false,
      "stateMutability": "nonpayable",
      "type": "function"
    },
    {
      "constant": false,
      "inputs": [
        {
          "name": "_minimumReward",
          "type": "uint32"
        }
      ],
      "name": "setMinimumReward",
      "outputs": [],
      "payable": false,
      "stateMutability": "nonpayable",
      "type": "function"
    },
    {
      "constant": false,
      "inputs": [
        {
          "name": "_maximumReward",
          "type": "uint32"
        }
      ],
      "name": "setMaximumReward",
      "outputs": [],
      "payable": false,
      "stateMutability": "nonpayable",
      "type": "function"
    },
    {
      "constant": false,
      "inputs": [
        {
          "name": "_companyAddress",
          "type": "address"
        },
        {
          "name": "_balance",
          "type": "uint256"
        }
      ],
      "name": "setBalanceToCompany",
      "outputs": [],
      "payable": true,
      "stateMutability": "payable",
      "type": "function"
    },
    {
      "constant": false,
      "inputs": [
        {
          "name": "_companyAddress",
          "type": "address"
        },
        {
          "name": "_balance",
          "type": "uint256"
        }
      ],
      "name": "insertCompany",
      "outputs": [
        {
          "name": "",
          "type": "uint256"
        }
      ],
      "payable": false,
      "stateMutability": "nonpayable",
      "type": "function"
    },
    {
      "constant": false,
      "inputs": [
        {
          "name": "_productId",
          "type": "uint32"
        },
        {
          "name": "_duration",
          "type": "uint32"
        },
        {
          "name": "_promotionCount",
          "type": "uint32"
        }
      ],
      "name": "insertProduct",
      "outputs": [
        {
          "name": "",
          "type": "uint32"
        }
      ],
      "payable": false,
      "stateMutability": "nonpayable",
      "type": "function"
    },
    {
      "constant": false,
      "inputs": [
        {
          "name": "_productId",
          "type": "uint32"
        },
        {
          "name": "_barcodeNumber",
          "type": "uint32"
        },
        {
          "name": "_rewardAmount",
          "type": "uint32"
        }
      ],
      "name": "insertBarcode",
      "outputs": [
        {
          "name": "",
          "type": "bool"
        }
      ],
      "payable": true,
      "stateMutability": "payable",
      "type": "function"
    },
    {
      "constant": false,
      "inputs": [
        {
          "name": "_productId",
          "type": "uint32"
        },
        {
          "name": "_barcodeNumber",
          "type": "uint32"
        }
      ],
      "name": "checkBarcode",
      "outputs": [
        {
          "name": "",
          "type": "uint32"
        }
      ],
      "payable": true,
      "stateMutability": "payable",
      "type": "function"
    }
  ],
  "bytecode": "0x6060604052600060015560016002556001600360006101000a81548163ffffffff021916908363ffffffff1602179055506103e8600360046101000a81548163ffffffff021916908363ffffffff160217905550606460045534156200006457600080fd5b336000806101000a81548173ffffffffffffffffffffffffffffffffffffffff021916908373ffffffffffffffffffffffffffffffffffffffff16021790555033600e60006101000a81548173ffffffffffffffffffffffffffffffffffffffff021916908373ffffffffffffffffffffffffffffffffffffffff160217905550620000ef6200014c565b604051809103906000f08015156200010657600080fd5b600560006101000a81548173ffffffffffffffffffffffffffffffffffffffff021916908373ffffffffffffffffffffffffffffffffffffffff1602179055506200015d565b6040516117ee806200261f83390190565b6124b2806200016d6000396000f3006060604052600436106100f1576000357c0100000000000000000000000000000000000000000000000000000000900463ffffffff16806313597614146100f65780631a99a9171461011f57806327df2bac14610173578063343365c8146101da5780633d0c49241461020357806348632f0f1461022c5780635d659430146102825780636de9f32b1461033b5780636e5ab671146103645780637ede036d1461044c5780638da5cb5b14610475578063905566cc146104ca578063b166fe9514610517578063ba0a897414610648578063e1e1c627146106ba578063f2fde38b146106f1578063f8b2cb4f1461072a575b600080fd5b341561010157600080fd5b61011d600480803563ffffffff16906020019091905050610777565b005b610159600480803563ffffffff1690602001909190803563ffffffff1690602001909190803563ffffffff169060200190919050506107f6565b604051808215151515815260200191505060405180910390f35b341561017e57600080fd5b6101b8600480803563ffffffff1690602001909190803563ffffffff1690602001909190803563ffffffff16906020019091905050610cef565b604051808263ffffffff1663ffffffff16815260200191505060405180910390f35b34156101e557600080fd5b610201600480803563ffffffff169060200190919050506110a8565b005b341561020e57600080fd5b610216611127565b6040518082815260200191505060405180910390f35b341561023757600080fd5b61026c600480803573ffffffffffffffffffffffffffffffffffffffff16906020019091908035906020019091905050611136565b6040518082815260200191505060405180910390f35b341561028d57600080fd5b6102a9600480803563ffffffff169060200190919050506115aa565b604051808873ffffffffffffffffffffffffffffffffffffffff1673ffffffffffffffffffffffffffffffffffffffff1681526020018763ffffffff1663ffffffff1681526020018681526020018581526020018463ffffffff1663ffffffff16815260200183815260200182600181111561032157fe5b60ff16815260200197505050505050505060405180910390f35b341561034657600080fd5b61034e611639565b6040518082815260200191505060405180910390f35b341561036f57600080fd5b61039b600480803573ffffffffffffffffffffffffffffffffffffffff1690602001909190505061163f565b604051808773ffffffffffffffffffffffffffffffffffffffff1673ffffffffffffffffffffffffffffffffffffffff16815260200186815260200185600019166000191681526020018463ffffffff1663ffffffff1681526020018373ffffffffffffffffffffffffffffffffffffffff1673ffffffffffffffffffffffffffffffffffffffff1681526020018263ffffffff1663ffffffff168152602001965050505050505060405180910390f35b341561045757600080fd5b61045f6116db565b6040518082815260200191505060405180910390f35b341561048057600080fd5b6104886116e1565b604051808273ffffffffffffffffffffffffffffffffffffffff1673ffffffffffffffffffffffffffffffffffffffff16815260200191505060405180910390f35b6104f5600480803563ffffffff1690602001909190803563ffffffff16906020019091905050611707565b604051808263ffffffff1663ffffffff16815260200191505060405180910390f35b341561052257600080fd5b61054e600480803573ffffffffffffffffffffffffffffffffffffffff16906020019091905050611b93565b60405180806020018663ffffffff1663ffffffff1681526020018581526020018473ffffffffffffffffffffffffffffffffffffffff1673ffffffffffffffffffffffffffffffffffffffff1681526020018360018111156105ac57fe5b60ff1681526020018281038252878181546001816001161561010002031660029004815260200191508054600181600116156101000203166002900480156106355780601f1061060a57610100808354040283529160200191610635565b820191906000526020600020905b81548152906001019060200180831161061857829003601f168201915b5050965050505050505060405180910390f35b341561065357600080fd5b61066d600480803560001916906020019091905050611c05565b6040518085600019166000191681526020018481526020018363ffffffff1663ffffffff1681526020018260018111156106a357fe5b60ff16815260200194505050505060405180910390f35b6106ef600480803573ffffffffffffffffffffffffffffffffffffffff16906020019091908035906020019091905050611c52565b005b34156106fc57600080fd5b610728600480803573ffffffffffffffffffffffffffffffffffffffff16906020019091905050611db0565b005b341561073557600080fd5b610761600480803573ffffffffffffffffffffffffffffffffffffffff16906020019091905050611f05565b6040518082815260200191505060405180910390f35b6000809054906101000a900473ffffffffffffffffffffffffffffffffffffffff1673ffffffffffffffffffffffffffffffffffffffff163373ffffffffffffffffffffffffffffffffffffffff161415156107d257600080fd5b80600360006101000a81548163ffffffff021916908363ffffffff16021790555050565b600080610801612067565b6000600a60008863ffffffff1663ffffffff16815260200190815260200160002060000160149054906101000a900463ffffffff1663ffffffff1614806108b657503373ffffffffffffffffffffffffffffffffffffffff16600a60008863ffffffff1663ffffffff16815260200190815260200160002060000160009054906101000a900473ffffffffffffffffffffffffffffffffffffffff1673ffffffffffffffffffffffffffffffffffffffff1614155b156108c057600080fd5b600b600086604051808263ffffffff1663ffffffff167c010000000000000000000000000000000000000000000000000000000002815260040191505060405180910390206000191660001916815260200190815260200160002091506000600102600b600087604051808263ffffffff1663ffffffff167c0100000000000000000000000000000000000000000000000000000000028152600401915050604051809103902060001916600019168152602001908152602001600020600001546000191614151561099157600080fd5b600360009054906101000a900463ffffffff1663ffffffff168463ffffffff1610806109da5750600360049054906101000a900463ffffffff1663ffffffff168463ffffffff16115b156109e457600080fd5b84604051808263ffffffff1663ffffffff167c01000000000000000000000000000000000000000000000000000000000281526004019150506040518091039020816000019060001916908160001916815250504281602001818152505083816040019063ffffffff16908163ffffffff1681525050600081606001906001811115610a6c57fe5b90816001811115610a7957fe5b8152505080600b6000836000015160001916600019168152602001908152602001600020600082015181600001906000191690556020820151816001015560408201518160020160006101000a81548163ffffffff021916908363ffffffff16021790555060608201518160020160046101000a81548160ff02191690836001811115610b0257fe5b021790555090505060068054806001018281610b1e91906120a4565b91600052602060002090600302016000839091909150600082015181600001906000191690556020820151816001015560408201518160020160006101000a81548163ffffffff021916908363ffffffff16021790555060608201518160020160046101000a81548160ff02191690836001811115610b9957fe5b0217905550505050600560009054906101000a900473ffffffffffffffffffffffffffffffffffffffff1673ffffffffffffffffffffffffffffffffffffffff166323b872dd33600e60009054906101000a900473ffffffffffffffffffffffffffffffffffffffff166004546000604051602001526040518463ffffffff167c0100000000000000000000000000000000000000000000000000000000028152600401808473ffffffffffffffffffffffffffffffffffffffff1673ffffffffffffffffffffffffffffffffffffffff1681526020018373ffffffffffffffffffffffffffffffffffffffff1673ffffffffffffffffffffffffffffffffffffffff1681526020018281526020019350505050602060405180830381600087803b1515610cc657600080fd5b6102c65a03f11515610cd757600080fd5b50505060405180519050506001925050509392505050565b6000610cf96120d6565b8463ffffffff16600a60008763ffffffff1663ffffffff16815260200190815260200160002060000160149054906101000a900463ffffffff1663ffffffff161415610d4457600080fd5b3373ffffffffffffffffffffffffffffffffffffffff16600d60003373ffffffffffffffffffffffffffffffffffffffff1673ffffffffffffffffffffffffffffffffffffffff16815260200190815260200160002060030160009054906101000a900473ffffffffffffffffffffffffffffffffffffffff1673ffffffffffffffffffffffffffffffffffffffff16141515610de057600080fd5b84816020019063ffffffff16908163ffffffff1681525050428160400181815250506001840263ffffffff16420181606001818152505082816080019063ffffffff16908163ffffffff1681525050428160a001818152505060008160c001906001811115610e4b57fe5b90816001811115610e5857fe5b8152505033816000019073ffffffffffffffffffffffffffffffffffffffff16908173ffffffffffffffffffffffffffffffffffffffff168152505080600a60008763ffffffff1663ffffffff16815260200190815260200160002060008201518160000160006101000a81548173ffffffffffffffffffffffffffffffffffffffff021916908373ffffffffffffffffffffffffffffffffffffffff16021790555060208201518160000160146101000a81548163ffffffff021916908363ffffffff160217905550604082015181600101556060820151816002015560808201518160030160006101000a81548163ffffffff021916908363ffffffff16021790555060a0820151816004015560c08201518160050160006101000a81548160ff02191690836001811115610f8b57fe5b021790555090505060078054806001018281610fa79190612141565b9160005260206000209060060201600083909190915060008201518160000160006101000a81548173ffffffffffffffffffffffffffffffffffffffff021916908373ffffffffffffffffffffffffffffffffffffffff16021790555060208201518160000160146101000a81548163ffffffff021916908363ffffffff160217905550604082015181600101556060820151816002015560808201518160030160006101000a81548163ffffffff021916908363ffffffff16021790555060a0820151816004015560c08201518160050160006101000a81548160ff0219169083600181111561109457fe5b021790555050505060019150509392505050565b6000809054906101000a900473ffffffffffffffffffffffffffffffffffffffff1673ffffffffffffffffffffffffffffffffffffffff163373ffffffffffffffffffffffffffffffffffffffff1614151561110357600080fd5b80600360046101000a81548163ffffffff021916908363ffffffff16021790555050565b6a021165458500521280000081565b6000611140612173565b6000809054906101000a900473ffffffffffffffffffffffffffffffffffffffff1673ffffffffffffffffffffffffffffffffffffffff163373ffffffffffffffffffffffffffffffffffffffff1614151561119b57600080fd5b600073ffffffffffffffffffffffffffffffffffffffff16600d60008673ffffffffffffffffffffffffffffffffffffffff1673ffffffffffffffffffffffffffffffffffffffff16815260200190815260200160002060030160009054906101000a900473ffffffffffffffffffffffffffffffffffffffff1673ffffffffffffffffffffffffffffffffffffffff1614151561123857600080fd5b6a02116545850052128000006112598460015461204990919063ffffffff16565b1115151561126657600080fd5b83816060019073ffffffffffffffffffffffffffffffffffffffff16908173ffffffffffffffffffffffffffffffffffffffff1681525050428160400181815250506000816080019060018111156112ba57fe5b908160018111156112c757fe5b8152505080600d60008673ffffffffffffffffffffffffffffffffffffffff1673ffffffffffffffffffffffffffffffffffffffff16815260200190815260200160002060008201518160000190805190602001906113279291906121d0565b5060208201518160010160006101000a81548163ffffffff021916908363ffffffff1602179055506040820151816002015560608201518160030160006101000a81548173ffffffffffffffffffffffffffffffffffffffff021916908373ffffffffffffffffffffffffffffffffffffffff16021790555060808201518160030160146101000a81548160ff021916908360018111156113c457fe5b0217905550905050600980548060010182816113e09190612250565b9160005260206000209060040201600083909190915060008201518160000190805190602001906114129291906121d0565b5060208201518160010160006101000a81548163ffffffff021916908363ffffffff1602179055506040820151816002015560608201518160030160006101000a81548173ffffffffffffffffffffffffffffffffffffffff021916908373ffffffffffffffffffffffffffffffffffffffff16021790555060808201518160030160146101000a81548160ff021916908360018111156114af57fe5b02179055505050506114c18484611c52565b600560009054906101000a900473ffffffffffffffffffffffffffffffffffffffff1673ffffffffffffffffffffffffffffffffffffffff166370a08231856000604051602001526040518263ffffffff167c0100000000000000000000000000000000000000000000000000000000028152600401808273ffffffffffffffffffffffffffffffffffffffff1673ffffffffffffffffffffffffffffffffffffffff168152602001915050602060405180830381600087803b151561158657600080fd5b6102c65a03f1151561159757600080fd5b5050506040518051905091505092915050565b600a6020528060005260406000206000915090508060000160009054906101000a900473ffffffffffffffffffffffffffffffffffffffff16908060000160149054906101000a900463ffffffff16908060010154908060020154908060030160009054906101000a900463ffffffff16908060040154908060050160009054906101000a900460ff16905087565b60015481565b600c6020528060005260406000206000915090508060000160009054906101000a900473ffffffffffffffffffffffffffffffffffffffff16908060010154908060020154908060030160009054906101000a900463ffffffff16908060030160049054906101000a900473ffffffffffffffffffffffffffffffffffffffff16908060030160189054906101000a900463ffffffff16905086565b60025481565b600e60009054906101000a900473ffffffffffffffffffffffffffffffffffffffff1681565b600080600080600a60008763ffffffff1663ffffffff16815260200190815260200160002060000160149054906101000a900463ffffffff1663ffffffff16141561175157600080fd5b6000600b600086604051808263ffffffff1663ffffffff167c010000000000000000000000000000000000000000000000000000000002815260040191505060405180910390206000191660001916815260200190815260200160002060020160009054906101000a900463ffffffff1663ffffffff1614156117d357600080fd5b42600a60008763ffffffff1663ffffffff168152602001908152602001600020600101541180611824575042600a60008763ffffffff1663ffffffff16815260200190815260200160002060020154105b1561182e57600080fd5b600b600085604051808263ffffffff1663ffffffff167c010000000000000000000000000000000000000000000000000000000002815260040191505060405180910390206000191660001916815260200190815260200160002091506000600181111561189857fe5b8260020160049054906101000a900460ff1660018111156118b557fe5b1415611b865760018260020160046101000a81548160ff021916908360018111156118dc57fe5b021790555081600b600086604051808263ffffffff1663ffffffff167c010000000000000000000000000000000000000000000000000000000002815260040191505060405180910390206000191660001916815260200190815260200160002060008201548160000190600019169055600182015481600101556002820160009054906101000a900463ffffffff168160020160006101000a81548163ffffffff021916908363ffffffff1602179055506002820160049054906101000a900460ff168160020160046101000a81548160ff021916908360018111156119bf57fe5b0217905550905050600a60008663ffffffff1663ffffffff168152602001908152602001600020905060018160030160009054906101000a900463ffffffff16038160030160006101000a81548163ffffffff021916908363ffffffff160217905550600560009054906101000a900473ffffffffffffffffffffffffffffffffffffffff1673ffffffffffffffffffffffffffffffffffffffff166323b872dd8260000160009054906101000a900473ffffffffffffffffffffffffffffffffffffffff16338560020160009054906101000a900463ffffffff166000604051602001526040518463ffffffff167c0100000000000000000000000000000000000000000000000000000000028152600401808473ffffffffffffffffffffffffffffffffffffffff1673ffffffffffffffffffffffffffffffffffffffff1681526020018373ffffffffffffffffffffffffffffffffffffffff1673ffffffffffffffffffffffffffffffffffffffff1681526020018263ffffffff1681526020019350505050602060405180830381600087803b1515611b6157600080fd5b6102c65a03f11515611b7257600080fd5b505050604051805190505060019250611b8b565b600092505b505092915050565b600d60205280600052604060002060009150905080600001908060010160009054906101000a900463ffffffff16908060020154908060030160009054906101000a900473ffffffffffffffffffffffffffffffffffffffff16908060030160149054906101000a900460ff16905085565b600b6020528060005260406000206000915090508060000154908060010154908060020160009054906101000a900463ffffffff16908060020160049054906101000a900460ff16905084565b6000809054906101000a900473ffffffffffffffffffffffffffffffffffffffff1673ffffffffffffffffffffffffffffffffffffffff163373ffffffffffffffffffffffffffffffffffffffff16141515611cad57600080fd5b600560009054906101000a900473ffffffffffffffffffffffffffffffffffffffff1673ffffffffffffffffffffffffffffffffffffffff166340c10f1983836000604051602001526040518363ffffffff167c0100000000000000000000000000000000000000000000000000000000028152600401808373ffffffffffffffffffffffffffffffffffffffff1673ffffffffffffffffffffffffffffffffffffffff16815260200182815260200192505050602060405180830381600087803b1515611d7a57600080fd5b6102c65a03f11515611d8b57600080fd5b5050506040518051905050611dab8160015461204990919063ffffffff16565b505050565b6000809054906101000a900473ffffffffffffffffffffffffffffffffffffffff1673ffffffffffffffffffffffffffffffffffffffff163373ffffffffffffffffffffffffffffffffffffffff16141515611e0b57600080fd5b600073ffffffffffffffffffffffffffffffffffffffff168173ffffffffffffffffffffffffffffffffffffffff1614151515611e4757600080fd5b8073ffffffffffffffffffffffffffffffffffffffff166000809054906101000a900473ffffffffffffffffffffffffffffffffffffffff1673ffffffffffffffffffffffffffffffffffffffff167f8be0079c531659141344cd1fd0a4f28419497f9722a3daafe3b4186f6b6457e060405160405180910390a3806000806101000a81548173ffffffffffffffffffffffffffffffffffffffff021916908373ffffffffffffffffffffffffffffffffffffffff16021790555050565b60008060009054906101000a900473ffffffffffffffffffffffffffffffffffffffff1673ffffffffffffffffffffffffffffffffffffffff163373ffffffffffffffffffffffffffffffffffffffff16141515611f6257600080fd5b600560009054906101000a900473ffffffffffffffffffffffffffffffffffffffff1673ffffffffffffffffffffffffffffffffffffffff166370a08231836000604051602001526040518263ffffffff167c0100000000000000000000000000000000000000000000000000000000028152600401808273ffffffffffffffffffffffffffffffffffffffff1673ffffffffffffffffffffffffffffffffffffffff168152602001915050602060405180830381600087803b151561202757600080fd5b6102c65a03f1151561203857600080fd5b505050604051805190509050919050565b600080828401905083811015151561205d57fe5b8091505092915050565b6080604051908101604052806000801916815260200160008152602001600063ffffffff1681526020016000600181111561209e57fe5b81525090565b8154818355818115116120d1576003028160030283600052602060002091820191016120d09190612282565b5b505050565b60e060405190810160405280600073ffffffffffffffffffffffffffffffffffffffff168152602001600063ffffffff1681526020016000815260200160008152602001600063ffffffff168152602001600081526020016000600181111561213b57fe5b81525090565b81548183558181151161216e5760060281600602836000526020600020918201910161216d91906122dc565b5b505050565b60a06040519081016040528061218761237c565b8152602001600063ffffffff16815260200160008152602001600073ffffffffffffffffffffffffffffffffffffffff168152602001600060018111156121ca57fe5b81525090565b828054600181600116156101000203166002900490600052602060002090601f016020900481019282601f1061221157805160ff191683800117855561223f565b8280016001018555821561223f579182015b8281111561223e578251825591602001919060010190612223565b5b50905061224c9190612390565b5090565b81548183558181151161227d5760040281600402836000526020600020918201910161227c91906123b5565b5b505050565b6122d991905b808211156122d55760008082016000905560018201600090556002820160006101000a81549063ffffffff02191690556002820160046101000a81549060ff021916905550600301612288565b5090565b90565b61237991905b8082111561237557600080820160006101000a81549073ffffffffffffffffffffffffffffffffffffffff02191690556000820160146101000a81549063ffffffff0219169055600182016000905560028201600090556003820160006101000a81549063ffffffff021916905560048201600090556005820160006101000a81549060ff0219169055506006016122e2565b5090565b90565b602060405190810160405280600081525090565b6123b291905b808211156123ae576000816000905550600101612396565b5090565b90565b61243b91905b8082111561243757600080820160006123d4919061243e565b6001820160006101000a81549063ffffffff021916905560028201600090556003820160006101000a81549073ffffffffffffffffffffffffffffffffffffffff02191690556003820160146101000a81549060ff0219169055506004016123bb565b5090565b90565b50805460018160011615610100020316600290046000825580601f106124645750612483565b601f0160209004906000526020600020908101906124829190612390565b5b505600a165627a7a723058202edc6293bf0dbf249cfbde4a4f57d5049db2b7957754c4ecff4d7b962e64cb52002960606040526000600360146101000a81548160ff02191690831515021790555033600360006101000a81548173ffffffffffffffffffffffffffffffffffffffff021916908373ffffffffffffffffffffffffffffffffffffffff16021790555061177f8061006f6000396000f3006060604052600436106100e6576000357c0100000000000000000000000000000000000000000000000000000000900463ffffffff16806305d2035b146100eb57806306fdde0314610118578063095ea7b3146101a657806318160ddd1461020057806323b872dd14610229578063313ce567146102a257806340c10f19146102cb578063661884631461032557806370a082311461037f5780637d64bcb4146103cc5780638da5cb5b146103f957806395d89b411461044e578063a9059cbb146104dc578063d73dd62314610536578063dd62ed3e14610590578063f2fde38b146105fc575b600080fd5b34156100f657600080fd5b6100fe610635565b604051808215151515815260200191505060405180910390f35b341561012357600080fd5b61012b610648565b6040518080602001828103825283818151815260200191508051906020019080838360005b8381101561016b578082015181840152602081019050610150565b50505050905090810190601f1680156101985780820380516001836020036101000a031916815260200191505b509250505060405180910390f35b34156101b157600080fd5b6101e6600480803573ffffffffffffffffffffffffffffffffffffffff16906020019091908035906020019091905050610681565b604051808215151515815260200191505060405180910390f35b341561020b57600080fd5b610213610773565b6040518082815260200191505060405180910390f35b341561023457600080fd5b610288600480803573ffffffffffffffffffffffffffffffffffffffff1690602001909190803573ffffffffffffffffffffffffffffffffffffffff1690602001909190803590602001909190505061077d565b604051808215151515815260200191505060405180910390f35b34156102ad57600080fd5b6102b5610b37565b6040518082815260200191505060405180910390f35b34156102d657600080fd5b61030b600480803573ffffffffffffffffffffffffffffffffffffffff16906020019091908035906020019091905050610b3c565b604051808215151515815260200191505060405180910390f35b341561033057600080fd5b610365600480803573ffffffffffffffffffffffffffffffffffffffff16906020019091908035906020019091905050610d22565b604051808215151515815260200191505060405180910390f35b341561038a57600080fd5b6103b6600480803573ffffffffffffffffffffffffffffffffffffffff16906020019091905050610fb3565b6040518082815260200191505060405180910390f35b34156103d757600080fd5b6103df610ffb565b604051808215151515815260200191505060405180910390f35b341561040457600080fd5b61040c6110c3565b604051808273ffffffffffffffffffffffffffffffffffffffff1673ffffffffffffffffffffffffffffffffffffffff16815260200191505060405180910390f35b341561045957600080fd5b6104616110e9565b6040518080602001828103825283818151815260200191508051906020019080838360005b838110156104a1578082015181840152602081019050610486565b50505050905090810190601f1680156104ce5780820380516001836020036101000a031916815260200191505b509250505060405180910390f35b34156104e757600080fd5b61051c600480803573ffffffffffffffffffffffffffffffffffffffff16906020019091908035906020019091905050611122565b604051808215151515815260200191505060405180910390f35b341561054157600080fd5b610576600480803573ffffffffffffffffffffffffffffffffffffffff16906020019091908035906020019091905050611341565b604051808215151515815260200191505060405180910390f35b341561059b57600080fd5b6105e6600480803573ffffffffffffffffffffffffffffffffffffffff1690602001909190803573ffffffffffffffffffffffffffffffffffffffff1690602001909190505061153d565b6040518082815260200191505060405180910390f35b341561060757600080fd5b610633600480803573ffffffffffffffffffffffffffffffffffffffff169060200190919050506115c4565b005b600360149054906101000a900460ff1681565b6040805190810160405280600e81526020017f50726f6d6f74696f6e546f6b656e00000000000000000000000000000000000081525081565b600081600260003373ffffffffffffffffffffffffffffffffffffffff1673ffffffffffffffffffffffffffffffffffffffff16815260200190815260200160002060008573ffffffffffffffffffffffffffffffffffffffff1673ffffffffffffffffffffffffffffffffffffffff168152602001908152602001600020819055508273ffffffffffffffffffffffffffffffffffffffff163373ffffffffffffffffffffffffffffffffffffffff167f8c5be1e5ebec7d5bd14f71427d1e84f3dd0314c0f7b2291e5b200ac8c7c3b925846040518082815260200191505060405180910390a36001905092915050565b6000600154905090565b60008073ffffffffffffffffffffffffffffffffffffffff168373ffffffffffffffffffffffffffffffffffffffff16141515156107ba57600080fd5b6000808573ffffffffffffffffffffffffffffffffffffffff1673ffffffffffffffffffffffffffffffffffffffff16815260200190815260200160002054821115151561080757600080fd5b600260008573ffffffffffffffffffffffffffffffffffffffff1673ffffffffffffffffffffffffffffffffffffffff16815260200190815260200160002060003373ffffffffffffffffffffffffffffffffffffffff1673ffffffffffffffffffffffffffffffffffffffff16815260200190815260200160002054821115151561089257600080fd5b6108e3826000808773ffffffffffffffffffffffffffffffffffffffff1673ffffffffffffffffffffffffffffffffffffffff1681526020019081526020016000205461171c90919063ffffffff16565b6000808673ffffffffffffffffffffffffffffffffffffffff1673ffffffffffffffffffffffffffffffffffffffff16815260200190815260200160002081905550610976826000808673ffffffffffffffffffffffffffffffffffffffff1673ffffffffffffffffffffffffffffffffffffffff1681526020019081526020016000205461173590919063ffffffff16565b6000808573ffffffffffffffffffffffffffffffffffffffff1673ffffffffffffffffffffffffffffffffffffffff16815260200190815260200160002081905550610a4782600260008773ffffffffffffffffffffffffffffffffffffffff1673ffffffffffffffffffffffffffffffffffffffff16815260200190815260200160002060003373ffffffffffffffffffffffffffffffffffffffff1673ffffffffffffffffffffffffffffffffffffffff1681526020019081526020016000205461171c90919063ffffffff16565b600260008673ffffffffffffffffffffffffffffffffffffffff1673ffffffffffffffffffffffffffffffffffffffff16815260200190815260200160002060003373ffffffffffffffffffffffffffffffffffffffff1673ffffffffffffffffffffffffffffffffffffffff168152602001908152602001600020819055508273ffffffffffffffffffffffffffffffffffffffff168473ffffffffffffffffffffffffffffffffffffffff167fddf252ad1be2c89b69c2b068fc378daa952ba7f163c4a11628f55a4df523b3ef846040518082815260200191505060405180910390a3600190509392505050565b601281565b6000600360009054906101000a900473ffffffffffffffffffffffffffffffffffffffff1673ffffffffffffffffffffffffffffffffffffffff163373ffffffffffffffffffffffffffffffffffffffff16141515610b9a57600080fd5b600360149054906101000a900460ff16151515610bb657600080fd5b610bcb8260015461173590919063ffffffff16565b600181905550610c22826000808673ffffffffffffffffffffffffffffffffffffffff1673ffffffffffffffffffffffffffffffffffffffff1681526020019081526020016000205461173590919063ffffffff16565b6000808573ffffffffffffffffffffffffffffffffffffffff1673ffffffffffffffffffffffffffffffffffffffff168152602001908152602001600020819055508273ffffffffffffffffffffffffffffffffffffffff167f0f6798a560793a54c3bcfe86a93cde1e73087d944c0ea20544137d4121396885836040518082815260200191505060405180910390a28273ffffffffffffffffffffffffffffffffffffffff16600073ffffffffffffffffffffffffffffffffffffffff167fddf252ad1be2c89b69c2b068fc378daa952ba7f163c4a11628f55a4df523b3ef846040518082815260200191505060405180910390a36001905092915050565b600080600260003373ffffffffffffffffffffffffffffffffffffffff1673ffffffffffffffffffffffffffffffffffffffff16815260200190815260200160002060008573ffffffffffffffffffffffffffffffffffffffff1673ffffffffffffffffffffffffffffffffffffffff16815260200190815260200160002054905080831115610e33576000600260003373ffffffffffffffffffffffffffffffffffffffff1673ffffffffffffffffffffffffffffffffffffffff16815260200190815260200160002060008673ffffffffffffffffffffffffffffffffffffffff1673ffffffffffffffffffffffffffffffffffffffff16815260200190815260200160002081905550610ec7565b610e46838261171c90919063ffffffff16565b600260003373ffffffffffffffffffffffffffffffffffffffff1673ffffffffffffffffffffffffffffffffffffffff16815260200190815260200160002060008673ffffffffffffffffffffffffffffffffffffffff1673ffffffffffffffffffffffffffffffffffffffff168152602001908152602001600020819055505b8373ffffffffffffffffffffffffffffffffffffffff163373ffffffffffffffffffffffffffffffffffffffff167f8c5be1e5ebec7d5bd14f71427d1e84f3dd0314c0f7b2291e5b200ac8c7c3b925600260003373ffffffffffffffffffffffffffffffffffffffff1673ffffffffffffffffffffffffffffffffffffffff16815260200190815260200160002060008873ffffffffffffffffffffffffffffffffffffffff1673ffffffffffffffffffffffffffffffffffffffff168152602001908152602001600020546040518082815260200191505060405180910390a3600191505092915050565b60008060008373ffffffffffffffffffffffffffffffffffffffff1673ffffffffffffffffffffffffffffffffffffffff168152602001908152602001600020549050919050565b6000600360009054906101000a900473ffffffffffffffffffffffffffffffffffffffff1673ffffffffffffffffffffffffffffffffffffffff163373ffffffffffffffffffffffffffffffffffffffff1614151561105957600080fd5b600360149054906101000a900460ff1615151561107557600080fd5b6001600360146101000a81548160ff0219169083151502179055507fae5184fba832cb2b1f702aca6117b8d265eaf03ad33eb133f19dde0f5920fa0860405160405180910390a16001905090565b600360009054906101000a900473ffffffffffffffffffffffffffffffffffffffff1681565b6040805190810160405280600481526020017f50524f430000000000000000000000000000000000000000000000000000000081525081565b60008073ffffffffffffffffffffffffffffffffffffffff168373ffffffffffffffffffffffffffffffffffffffff161415151561115f57600080fd5b6000803373ffffffffffffffffffffffffffffffffffffffff1673ffffffffffffffffffffffffffffffffffffffff1681526020019081526020016000205482111515156111ac57600080fd5b6111fd826000803373ffffffffffffffffffffffffffffffffffffffff1673ffffffffffffffffffffffffffffffffffffffff1681526020019081526020016000205461171c90919063ffffffff16565b6000803373ffffffffffffffffffffffffffffffffffffffff1673ffffffffffffffffffffffffffffffffffffffff16815260200190815260200160002081905550611290826000808673ffffffffffffffffffffffffffffffffffffffff1673ffffffffffffffffffffffffffffffffffffffff1681526020019081526020016000205461173590919063ffffffff16565b6000808573ffffffffffffffffffffffffffffffffffffffff1673ffffffffffffffffffffffffffffffffffffffff168152602001908152602001600020819055508273ffffffffffffffffffffffffffffffffffffffff163373ffffffffffffffffffffffffffffffffffffffff167fddf252ad1be2c89b69c2b068fc378daa952ba7f163c4a11628f55a4df523b3ef846040518082815260200191505060405180910390a36001905092915050565b60006113d282600260003373ffffffffffffffffffffffffffffffffffffffff1673ffffffffffffffffffffffffffffffffffffffff16815260200190815260200160002060008673ffffffffffffffffffffffffffffffffffffffff1673ffffffffffffffffffffffffffffffffffffffff1681526020019081526020016000205461173590919063ffffffff16565b600260003373ffffffffffffffffffffffffffffffffffffffff1673ffffffffffffffffffffffffffffffffffffffff16815260200190815260200160002060008573ffffffffffffffffffffffffffffffffffffffff1673ffffffffffffffffffffffffffffffffffffffff168152602001908152602001600020819055508273ffffffffffffffffffffffffffffffffffffffff163373ffffffffffffffffffffffffffffffffffffffff167f8c5be1e5ebec7d5bd14f71427d1e84f3dd0314c0f7b2291e5b200ac8c7c3b925600260003373ffffffffffffffffffffffffffffffffffffffff1673ffffffffffffffffffffffffffffffffffffffff16815260200190815260200160002060008773ffffffffffffffffffffffffffffffffffffffff1673ffffffffffffffffffffffffffffffffffffffff168152602001908152602001600020546040518082815260200191505060405180910390a36001905092915050565b6000600260008473ffffffffffffffffffffffffffffffffffffffff1673ffffffffffffffffffffffffffffffffffffffff16815260200190815260200160002060008373ffffffffffffffffffffffffffffffffffffffff1673ffffffffffffffffffffffffffffffffffffffff16815260200190815260200160002054905092915050565b600360009054906101000a900473ffffffffffffffffffffffffffffffffffffffff1673ffffffffffffffffffffffffffffffffffffffff163373ffffffffffffffffffffffffffffffffffffffff1614151561162057600080fd5b600073ffffffffffffffffffffffffffffffffffffffff168173ffffffffffffffffffffffffffffffffffffffff161415151561165c57600080fd5b8073ffffffffffffffffffffffffffffffffffffffff16600360009054906101000a900473ffffffffffffffffffffffffffffffffffffffff1673ffffffffffffffffffffffffffffffffffffffff167f8be0079c531659141344cd1fd0a4f28419497f9722a3daafe3b4186f6b6457e060405160405180910390a380600360006101000a81548173ffffffffffffffffffffffffffffffffffffffff021916908373ffffffffffffffffffffffffffffffffffffffff16021790555050565b600082821115151561172a57fe5b818303905092915050565b600080828401905083811015151561174957fe5b80915050929150505600a165627a7a72305820a9a8b5b330de4309c0112d490b7a4542c5da5423236775135ed3104ba5f335000029",
  "source": "/**\r\n * @title Promotions\r\n * @dev The Ownable contract has an owner address, and provides basic authorization control\r\n * functions, this simplifies the implementation of \"user permissions\".\r\n */\r\npragma solidity ^0.4.17;\r\n\r\nimport \"./token/PromotionToken.sol\";\r\nimport \"zeppelin-solidity/contracts/math/SafeMath.sol\";\r\nimport \"zeppelin-solidity/contracts/token/ERC20/MintableToken.sol\";\r\nimport \"zeppelin-solidity/contracts/ownership/Ownable.sol\";\r\n/// @author Abdullah ASlan\r\n\r\ncontract Promotions is Ownable {\r\n\r\n    using SafeMath for uint256;\r\n    \r\n    uint public tokensMinted = 0;\r\n    uint public minimumSupply = 1; //minimum token amount to sale at one transaction\r\n    uint public constant MAXIMUM_SUPPLY = 2500000 * 10**18;\r\n    \r\n    \r\n    \r\n    uint32 minimumReward = 1;\r\n    uint32 maximumReward = 1000;\r\n   \r\n    uint insertProductWei = 100;\r\n\r\n    MintableToken token;\r\n    \r\n    event InsertCompanyEvent();\r\n    event InsertProductEvent(address _companyAddress, uint32 _productId);\r\n    event InsertBarcodeEvent(address _companyAddress,  uint32 _productId, uint32 _barcodeNumber);\r\n    event CheckBarcodeEvent(address _checkerAddress,uint32 _productId, uint32 _barcodeNumber);\r\n    event UserWonEvent(address _checkerAddress, uint32 _productId, uint32 _barcodeNumber, uint32 _coinAmount);\r\n  \r\n    enum Status { Active, Passive }\r\n    \r\n    struct barcode {\r\n        bytes32 barcodeId; \r\n        uint256 timestamp; \r\n        uint32 rewardAmountInWei;\r\n        Status status;\r\n    }\r\n\r\n    struct product {\r\n        address companyAddress;\r\n        uint32 productId;\r\n        uint256 startDate;\r\n        uint256 endDate;             \r\n        uint32 promotionCount;       \r\n        uint256 timestamp;\r\n        Status status;\r\n    }\r\n    \r\n    struct company{\r\n        string companyName;\r\n        uint32 balance;\r\n        uint256 timestamp;\r\n        address companyAddress;\r\n        Status status;\r\n    }\r\n\r\n    // represents a roll\r\n\r\n   \r\n    \r\n    struct winner {\r\n        address winnerAddress;\r\n        uint256 timestamp;\r\n        bytes32 barcodeId;\r\n        uint32 productId;\r\n        address companyAddress;\r\n        uint32 reward;\r\n        \r\n    }\r\n\r\n\r\n    barcode[] barcodes; \r\n    product[] products;\r\n    winner[] winners;\r\n    company[] companies;\r\n    \r\n    mapping(uint32 => product) public productMap;\r\n    mapping(bytes32 => barcode) public barcodeMap;\r\n    mapping(address => winner) public winnerMap;\r\n    mapping(address => company) public companyMap;\r\n    \r\n    address public owner;    // address of the token being used for this    \r\n\r\n\r\n    /// @notice the init function that is run automatically when contract is created\r\n\r\n    function Promotions() {\r\n        owner = msg.sender;\r\n        token = new PromotionToken();\r\n    }\r\n    \r\n    function getBalance(address _address) public onlyOwner returns (uint256) {\r\n        \r\n        return token.balanceOf(_address);\r\n    }\r\n\r\n    function setMinimumReward(uint32 _minimumReward) public onlyOwner {\r\n        minimumReward = _minimumReward;\r\n    }\r\n\r\n    function setMaximumReward(uint32 _maximumReward) public onlyOwner {\r\n        maximumReward = _maximumReward;\r\n    }\r\n\r\n    function setBalanceToCompany(address _companyAddress, uint256 _balance) payable onlyOwner{\r\n        \r\n        token.mint(_companyAddress,_balance);\r\n        tokensMinted.add(_balance);\r\n    }\r\n    \r\n    function insertCompany(address _companyAddress, uint256 _balance) public onlyOwner returns (uint256) {\r\n    \r\n        if(companyMap[_companyAddress].companyAddress != address(0))  revert();\r\n        require(tokensMinted.add(_balance) <= MAXIMUM_SUPPLY);\r\n        \r\n        company memory newCompany;    \r\n        newCompany.companyAddress = _companyAddress;    \r\n        newCompany.timestamp = block.timestamp;\r\n        newCompany.status = Status.Active;    \r\n        companyMap[_companyAddress] = newCompany; \r\n\r\n        companies.push(newCompany);\r\n        \r\n        setBalanceToCompany(_companyAddress,_balance);\r\n        \r\n        return  token.balanceOf(_companyAddress);\r\n        \r\n    }\r\n    \r\n    //company adds product\r\n    function insertProduct(uint32 _productId, uint32 _duration, uint32 _promotionCount) public returns (uint32) {      \r\n                \r\n        if (productMap[_productId].productId == _productId) revert();        \r\n        \r\n        if (companyMap[msg.sender].companyAddress != msg.sender ) revert();\r\n\r\n        product memory newProduct;\r\n        newProduct.productId = _productId;\r\n        newProduct.startDate = now ;\r\n        newProduct.endDate = now + _duration * 1 seconds;\r\n        newProduct.promotionCount = _promotionCount;\r\n        newProduct.timestamp = block.timestamp;\r\n        newProduct.status = Status.Active;\r\n        newProduct.companyAddress = msg.sender;       \r\n\r\n        productMap[_productId] = newProduct;\r\n        products.push(newProduct);\r\n\r\n        return 1;\r\n    }\r\n\r\n    //company adds barcode\r\n    function insertBarcode(uint32 _productId, uint32 _barcodeNumber, uint32 _rewardAmount) payable returns(bool) {\r\n       \r\n         //product not exist or product company != companyId\r\n        if (productMap[_productId].productId == 0 || productMap[_productId].companyAddress != msg.sender) revert();          \r\n         //if barcode exist \r\n         \r\n         \r\n         barcode storage barcodex = barcodeMap[keccak256(_barcodeNumber)];\r\n        if (barcodeMap[keccak256(_barcodeNumber)].barcodeId != 0) revert(); \r\n        \r\n        if(_rewardAmount < minimumReward || _rewardAmount > maximumReward) revert();\r\n        \r\n\r\n        barcode memory newBarcode;\r\n        newBarcode.barcodeId = keccak256(_barcodeNumber);\r\n        newBarcode.timestamp = block.timestamp;\r\n        newBarcode.rewardAmountInWei = _rewardAmount;\r\n        newBarcode.status = Status.Active; // isUsed\r\n\r\n        barcodeMap[newBarcode.barcodeId] = newBarcode;\r\n\r\n        barcodes.push(newBarcode);\r\n        \r\n        //bakiyesinde azaltma yap\r\n        token.transferFrom(msg.sender, owner, insertProductWei);\r\n\r\n        return true;\r\n    }\r\n\r\n    function checkBarcode(uint32 _productId, uint32 _barcodeNumber)  public payable returns(uint32) {\r\n        \r\n\r\n        if (productMap[_productId].productId == 0) revert();\r\n\r\n        if (barcodeMap[keccak256(_barcodeNumber)].rewardAmountInWei == 0) revert();\r\n        \r\n        //campaing expired\r\n        if(productMap[_productId].startDate > now || productMap[_productId].endDate < now ) revert();\r\n\r\n        barcode  storage barcode2= barcodeMap[keccak256(_barcodeNumber)];\r\n\r\n        if (barcode2.status == Status.Active) {\r\n\r\n            barcode2.status = Status.Passive;\r\n            barcodeMap[keccak256(_barcodeNumber)] = barcode2;\r\n            \r\n            product storage product2  = productMap[_productId];\r\n            product2.promotionCount = product2.promotionCount-1;\r\n            //selfdestruct(users[i]);\r\n            \r\n            token.transferFrom(product2.companyAddress, msg.sender, barcode2.rewardAmountInWei);\r\n            \r\n            return 1;\r\n        }\r\n        \r\n        return 0;\r\n\r\n      }\r\n}\r\n",
  "sourcePath": "E:\\play\\Ethereum\\Project\\LuckyYou\\contracts\\Promotions.sol",
  "compiler": {
    "name": "solc",
    "version": "0.4.19+commit.c4cbbb05.Emscripten.clang"
  },
  "schemaVersion": "2.0.0",
  "updatedAt": "2018-03-07T20:39:07.816Z"
}